{
  "contractName": "RainCommunity",
  "abi": [
    {
      "inputs": [
        {
          "internalType": "string",
          "name": "name",
          "type": "string"
        },
        {
          "internalType": "string",
          "name": "symbol",
          "type": "string"
        }
      ],
      "stateMutability": "nonpayable",
      "type": "constructor"
    },
    {
      "anonymous": false,
      "inputs": [
        {
          "indexed": true,
          "internalType": "bytes32",
          "name": "role",
          "type": "bytes32"
        },
        {
          "indexed": true,
          "internalType": "address",
          "name": "account",
          "type": "address"
        },
        {
          "indexed": true,
          "internalType": "address",
          "name": "sender",
          "type": "address"
        }
      ],
      "name": "RoleGranted",
      "type": "event"
    },
    {
      "anonymous": false,
      "inputs": [
        {
          "indexed": true,
          "internalType": "bytes32",
          "name": "role",
          "type": "bytes32"
        },
        {
          "indexed": true,
          "internalType": "address",
          "name": "account",
          "type": "address"
        },
        {
          "indexed": true,
          "internalType": "address",
          "name": "sender",
          "type": "address"
        }
      ],
      "name": "RoleRevoked",
      "type": "event"
    },
    {
      "inputs": [],
      "name": "ADMIN_ROLE",
      "outputs": [
        {
          "internalType": "bytes32",
          "name": "",
          "type": "bytes32"
        }
      ],
      "stateMutability": "view",
      "type": "function"
    },
    {
      "inputs": [],
      "name": "DEFAULT_ADMIN_ROLE",
      "outputs": [
        {
          "internalType": "bytes32",
          "name": "",
          "type": "bytes32"
        }
      ],
      "stateMutability": "view",
      "type": "function"
    },
    {
      "inputs": [],
      "name": "OWNER_ROLE",
      "outputs": [
        {
          "internalType": "bytes32",
          "name": "",
          "type": "bytes32"
        }
      ],
      "stateMutability": "view",
      "type": "function"
    },
    {
      "inputs": [
        {
          "internalType": "uint256",
          "name": "",
          "type": "uint256"
        }
      ],
      "name": "admins",
      "outputs": [
        {
          "internalType": "address payable",
          "name": "",
          "type": "address"
        }
      ],
      "stateMutability": "view",
      "type": "function"
    },
    {
      "inputs": [
        {
          "internalType": "bytes32",
          "name": "role",
          "type": "bytes32"
        }
      ],
      "name": "getRoleAdmin",
      "outputs": [
        {
          "internalType": "bytes32",
          "name": "",
          "type": "bytes32"
        }
      ],
      "stateMutability": "view",
      "type": "function"
    },
    {
      "inputs": [
        {
          "internalType": "bytes32",
          "name": "role",
          "type": "bytes32"
        },
        {
          "internalType": "uint256",
          "name": "index",
          "type": "uint256"
        }
      ],
      "name": "getRoleMember",
      "outputs": [
        {
          "internalType": "address",
          "name": "",
          "type": "address"
        }
      ],
      "stateMutability": "view",
      "type": "function"
    },
    {
      "inputs": [
        {
          "internalType": "bytes32",
          "name": "role",
          "type": "bytes32"
        }
      ],
      "name": "getRoleMemberCount",
      "outputs": [
        {
          "internalType": "uint256",
          "name": "",
          "type": "uint256"
        }
      ],
      "stateMutability": "view",
      "type": "function"
    },
    {
      "inputs": [
        {
          "internalType": "bytes32",
          "name": "role",
          "type": "bytes32"
        },
        {
          "internalType": "address",
          "name": "account",
          "type": "address"
        }
      ],
      "name": "grantRole",
      "outputs": [],
      "stateMutability": "nonpayable",
      "type": "function"
    },
    {
      "inputs": [
        {
          "internalType": "bytes32",
          "name": "role",
          "type": "bytes32"
        },
        {
          "internalType": "address",
          "name": "account",
          "type": "address"
        }
      ],
      "name": "hasRole",
      "outputs": [
        {
          "internalType": "bool",
          "name": "",
          "type": "bool"
        }
      ],
      "stateMutability": "view",
      "type": "function"
    },
    {
      "inputs": [],
      "name": "owner",
      "outputs": [
        {
          "internalType": "address payable",
          "name": "",
          "type": "address"
        }
      ],
      "stateMutability": "view",
      "type": "function"
    },
    {
      "inputs": [
        {
          "internalType": "bytes32",
          "name": "role",
          "type": "bytes32"
        },
        {
          "internalType": "address",
          "name": "account",
          "type": "address"
        }
      ],
      "name": "renounceRole",
      "outputs": [],
      "stateMutability": "nonpayable",
      "type": "function"
    },
    {
      "inputs": [
        {
          "internalType": "bytes32",
          "name": "role",
          "type": "bytes32"
        },
        {
          "internalType": "address",
          "name": "account",
          "type": "address"
        }
      ],
      "name": "revokeRole",
      "outputs": [],
      "stateMutability": "nonpayable",
      "type": "function"
    },
    {
      "inputs": [],
      "name": "name",
      "outputs": [
        {
          "internalType": "string",
          "name": "",
          "type": "string"
        }
      ],
      "stateMutability": "view",
      "type": "function"
    },
    {
      "inputs": [],
      "name": "symbol",
      "outputs": [
        {
          "internalType": "string",
          "name": "",
          "type": "string"
        }
      ],
      "stateMutability": "view",
      "type": "function"
    }
  ],
  "bytecode": "0x60806040523480156200001157600080fd5b50604051620016c1380380620016c1833981810160405260408110156200003757600080fd5b81019080805160405193929190846401000000008211156200005857600080fd5b838201915060208201858111156200006f57600080fd5b82518660018202830111640100000000821117156200008d57600080fd5b8083526020830192505050908051906020019080838360005b83811015620000c3578082015181840152602081019050620000a6565b50505050905090810190601f168015620000f15780820380516001836020036101000a031916815260200191505b50604052602001805160405193929190846401000000008211156200011557600080fd5b838201915060208201858111156200012c57600080fd5b82518660018202830111640100000000821117156200014a57600080fd5b8083526020830192505050908051906020019080838360005b838110156200018057808201518184015260208101905062000163565b50505050905090810190601f168015620001ae5780820380516001836020036101000a031916815260200191505b506040525050508160059080519060200190620001cd9291906200072d565b508060069080519060200190620001e69291906200072d565b506200022e60405180807f4f574e45525f524f4c4500000000000000000000000000000000000000000000815250600a0190506040518091039020336200046660201b60201c565b6200027560405180807f41444d494e5f524f4c4500000000000000000000000000000000000000000000815250600a0190506040518091039020336200047c60201b60201c565b6001600360003373ffffffffffffffffffffffffffffffffffffffff1673ffffffffffffffffffffffffffffffffffffffff16815260200190815260200160002060006101000a81548160ff0219169083151502179055506001600460003373ffffffffffffffffffffffffffffffffffffffff1673ffffffffffffffffffffffffffffffffffffffff16815260200190815260200160002060006101000a81548160ff021916908315150217905550620003a160405180807f4f574e45525f524f4c4500000000000000000000000000000000000000000000815250600a019050604051809103902060405180807f4f574e45525f524f4c4500000000000000000000000000000000000000000000815250600a01905060405180910390206200051f60201b60201c565b6200041d60405180807f41444d494e5f524f4c4500000000000000000000000000000000000000000000815250600a019050604051809103902060405180807f4f574e45525f524f4c4500000000000000000000000000000000000000000000815250600a01905060405180910390206200051f60201b60201c565b33600160006101000a81548173ffffffffffffffffffffffffffffffffffffffff021916908373ffffffffffffffffffffffffffffffffffffffff1602179055505050620007dc565b6200047882826200053d60201b60201c565b5050565b620004b260008084815260200190815260200160002060020154620004a6620005e060201b60201c565b620005e860201b60201c565b62000509576040517f08c379a000000000000000000000000000000000000000000000000000000000815260040180806020018281038252602f81526020018062001692602f913960400191505060405180910390fd5b6200051b82826200053d60201b60201c565b5050565b80600080848152602001908152602001600020600201819055505050565b6200056b816000808581526020019081526020016000206000016200062060201b62000b511790919060201c565b15620005dc5762000581620005e060201b60201c565b73ffffffffffffffffffffffffffffffffffffffff168173ffffffffffffffffffffffffffffffffffffffff16837f2f8788117e7eff1d82e926ec794901d17c78024a50270940304540a733656f0d60405160405180910390a45b5050565b600033905090565b600062000618826000808681526020019081526020016000206000016200065860201b62000b0c1790919060201c565b905092915050565b600062000650836000018373ffffffffffffffffffffffffffffffffffffffff1660001b6200069060201b60201c565b905092915050565b600062000688836000018373ffffffffffffffffffffffffffffffffffffffff1660001b6200070a60201b60201c565b905092915050565b6000620006a483836200070a60201b60201c565b620006ff57826000018290806001815401808255809150506001900390600052602060002001600090919091909150558260000180549050836001016000848152602001908152602001600020819055506001905062000704565b600090505b92915050565b600080836001016000848152602001908152602001600020541415905092915050565b828054600181600116156101000203166002900490600052602060002090601f016020900481019282601f106200077057805160ff1916838001178555620007a1565b82800160010185558215620007a1579182015b82811115620007a057825182559160200191906001019062000783565b5b509050620007b09190620007b4565b5090565b620007d991905b80821115620007d5576000816000905550600101620007bb565b5090565b90565b610ea680620007ec6000396000f3fe608060405234801561001057600080fd5b50600436106100ea5760003560e01c80639010d07c1161008c578063a217fddf11610066578063a217fddf14610487578063ca15c873146104a5578063d547741f146104e7578063e58378bb14610535576100ea565b80639010d07c1461032657806391d148541461039e57806395d89b4114610404576100ea565b80632f2ff15d116100c85780632f2ff15d1461022257806336568abe1461027057806375b238fc146102be5780638da5cb5b146102dc576100ea565b806306fdde03146100ef57806314bfd6d014610172578063248a9ca3146101e0575b600080fd5b6100f7610553565b6040518080602001828103825283818151815260200191508051906020019080838360005b8381101561013757808201518184015260208101905061011c565b50505050905090810190601f1680156101645780820380516001836020036101000a031916815260200191505b509250505060405180910390f35b61019e6004803603602081101561018857600080fd5b81019080803590602001909291905050506105f5565b604051808273ffffffffffffffffffffffffffffffffffffffff1673ffffffffffffffffffffffffffffffffffffffff16815260200191505060405180910390f35b61020c600480360360208110156101f657600080fd5b8101908080359060200190929190505050610631565b6040518082815260200191505060405180910390f35b61026e6004803603604081101561023857600080fd5b8101908080359060200190929190803573ffffffffffffffffffffffffffffffffffffffff169060200190929190505050610650565b005b6102bc6004803603604081101561028657600080fd5b8101908080359060200190929190803573ffffffffffffffffffffffffffffffffffffffff1690602001909291905050506106d9565b005b6102c6610772565b6040518082815260200191505060405180910390f35b6102e46107ab565b604051808273ffffffffffffffffffffffffffffffffffffffff1673ffffffffffffffffffffffffffffffffffffffff16815260200191505060405180910390f35b61035c6004803603604081101561033c57600080fd5b8101908080359060200190929190803590602001909291905050506107d1565b604051808273ffffffffffffffffffffffffffffffffffffffff1673ffffffffffffffffffffffffffffffffffffffff16815260200191505060405180910390f35b6103ea600480360360408110156103b457600080fd5b8101908080359060200190929190803573ffffffffffffffffffffffffffffffffffffffff169060200190929190505050610802565b604051808215151515815260200191505060405180910390f35b61040c610833565b6040518080602001828103825283818151815260200191508051906020019080838360005b8381101561044c578082015181840152602081019050610431565b50505050905090810190601f1680156104795780820380516001836020036101000a031916815260200191505b509250505060405180910390f35b61048f6108d5565b6040518082815260200191505060405180910390f35b6104d1600480360360208110156104bb57600080fd5b81019080803590602001909291905050506108dc565b6040518082815260200191505060405180910390f35b610533600480360360408110156104fd57600080fd5b8101908080359060200190929190803573ffffffffffffffffffffffffffffffffffffffff169060200190929190505050610902565b005b61053d61098b565b6040518082815260200191505060405180910390f35b606060058054600181600116156101000203166002900480601f0160208091040260200160405190810160405280929190818152602001828054600181600116156101000203166002900480156105eb5780601f106105c0576101008083540402835291602001916105eb565b820191906000526020600020905b8154815290600101906020018083116105ce57829003601f168201915b5050505050905090565b6002818154811061060257fe5b906000526020600020016000915054906101000a900473ffffffffffffffffffffffffffffffffffffffff1681565b6000806000838152602001908152602001600020600201549050919050565b610676600080848152602001908152602001600020600201546106716109c4565b610802565b6106cb576040517f08c379a000000000000000000000000000000000000000000000000000000000815260040180806020018281038252602f815260200180610de3602f913960400191505060405180910390fd5b6106d582826109cc565b5050565b6106e16109c4565b73ffffffffffffffffffffffffffffffffffffffff168173ffffffffffffffffffffffffffffffffffffffff1614610764576040517f08c379a000000000000000000000000000000000000000000000000000000000815260040180806020018281038252602f815260200180610e42602f913960400191505060405180910390fd5b61076e8282610a5f565b5050565b60405180807f41444d494e5f524f4c4500000000000000000000000000000000000000000000815250600a019050604051809103902081565b600160009054906101000a900473ffffffffffffffffffffffffffffffffffffffff1681565b60006107fa82600080868152602001908152602001600020600001610af290919063ffffffff16565b905092915050565b600061082b82600080868152602001908152602001600020600001610b0c90919063ffffffff16565b905092915050565b606060068054600181600116156101000203166002900480601f0160208091040260200160405190810160405280929190818152602001828054600181600116156101000203166002900480156108cb5780601f106108a0576101008083540402835291602001916108cb565b820191906000526020600020905b8154815290600101906020018083116108ae57829003601f168201915b5050505050905090565b6000801b81565b60006108fb600080848152602001908152602001600020600001610b3c565b9050919050565b610928600080848152602001908152602001600020600201546109236109c4565b610802565b61097d576040517f08c379a0000000000000000000000000000000000000000000000000000000008152600401808060200182810382526030815260200180610e126030913960400191505060405180910390fd5b6109878282610a5f565b5050565b60405180807f4f574e45525f524f4c4500000000000000000000000000000000000000000000815250600a019050604051809103902081565b600033905090565b6109f381600080858152602001908152602001600020600001610b5190919063ffffffff16565b15610a5b57610a006109c4565b73ffffffffffffffffffffffffffffffffffffffff168173ffffffffffffffffffffffffffffffffffffffff16837f2f8788117e7eff1d82e926ec794901d17c78024a50270940304540a733656f0d60405160405180910390a45b5050565b610a8681600080858152602001908152602001600020600001610b8190919063ffffffff16565b15610aee57610a936109c4565b73ffffffffffffffffffffffffffffffffffffffff168173ffffffffffffffffffffffffffffffffffffffff16837ff6391f5c32d9c69d2a47ea670b442974b53935d1edc7fd64eb21e047a839171b60405160405180910390a45b5050565b6000610b018360000183610bb1565b60001c905092915050565b6000610b34836000018373ffffffffffffffffffffffffffffffffffffffff1660001b610c34565b905092915050565b6000610b4a82600001610c57565b9050919050565b6000610b79836000018373ffffffffffffffffffffffffffffffffffffffff1660001b610c68565b905092915050565b6000610ba9836000018373ffffffffffffffffffffffffffffffffffffffff1660001b610cd8565b905092915050565b600081836000018054905011610c12576040517f08c379a0000000000000000000000000000000000000000000000000000000008152600401808060200182810382526022815260200180610dc16022913960400191505060405180910390fd5b826000018281548110610c2157fe5b9060005260206000200154905092915050565b600080836001016000848152602001908152602001600020541415905092915050565b600081600001805490509050919050565b6000610c748383610c34565b610ccd578260000182908060018154018082558091505060019003906000526020600020016000909190919091505582600001805490508360010160008481526020019081526020016000208190555060019050610cd2565b600090505b92915050565b60008083600101600084815260200190815260200160002054905060008114610db45760006001820390506000600186600001805490500390506000866000018281548110610d2357fe5b9060005260206000200154905080876000018481548110610d4057fe5b9060005260206000200181905550600183018760010160008381526020019081526020016000208190555086600001805480610d7857fe5b60019003818190600052602060002001600090559055866001016000878152602001908152602001600020600090556001945050505050610dba565b60009150505b9291505056fe456e756d657261626c655365743a20696e646578206f7574206f6620626f756e6473416363657373436f6e74726f6c3a2073656e646572206d75737420626520616e2061646d696e20746f206772616e74416363657373436f6e74726f6c3a2073656e646572206d75737420626520616e2061646d696e20746f207265766f6b65416363657373436f6e74726f6c3a2063616e206f6e6c792072656e6f756e636520726f6c657320666f722073656c66a26469706673582212204f29d22c78a78b7af1d9b2e752d98c4c4e32ba07a0700c5f46b0b720dbc84ff864736f6c63430006070033416363657373436f6e74726f6c3a2073656e646572206d75737420626520616e2061646d696e20746f206772616e74",
  "immutableReferences": {},
  "source": "pragma solidity ^0.6.0;\n\nimport \"@openzeppelin/contracts/access/AccessControl.sol\";\n\ncontract RainCommunity is AccessControl {\n\n  bytes32 public constant OWNER_ROLE = keccak256('OWNER_ROLE');\n  bytes32 public constant ADMIN_ROLE = keccak256('ADMIN_ROLE');\n\n  address payable public owner;\n  address payable[] public admins;\n\n  mapping(address => bool) private _moderators;\n  mapping(address => bool) private _members;\n\n  string private _name;\n  string private _symbol;\n\n  constructor (string memory name, string memory symbol) public {\n    _name = name;\n    _symbol = symbol;\n\n    // set up roles\n    _setupRole(OWNER_ROLE, msg.sender);\n    grantRole(ADMIN_ROLE, msg.sender);\n\n    _moderators[msg.sender] = true;\n    _members[msg.sender] = true;\n\n    _setRoleAdmin(OWNER_ROLE, OWNER_ROLE);\n    _setRoleAdmin(ADMIN_ROLE, OWNER_ROLE);\n\n    owner = msg.sender;\n  }\n\n  /**\n   * @dev Returns the name of the community.\n   */\n  function name () public view returns (string memory) {\n    return _name;\n  }\n\n  /**\n   * @dev Returns the symbol of the community.\n   */\n  function symbol () public view returns (string memory) {\n    return _symbol;\n  }\n\n  function _addModerator (address payable moderator) private {\n    require(hasRole(ADMIN_ROLE, msg.sender),'Caller is not an admin');\n    _moderators[moderator] = true;\n  }\n\n  function _addAdmin (address payable admin) private {\n    require(hasRole(OWNER_ROLE, msg.sender), 'Caller does not own the community');\n    grantRole(ADMIN_ROLE, admin);\n    admins.push(admin);\n  }\n}\n",
  "sourcePath": "/Users/newuser/rain_dir/clearrain/protocol/contracts/RainCommunity.sol",
  "compiler": {
    "name": "solc",
    "version": "0.6.7+commit.b8d736ae.Emscripten.clang"
  },
  "schemaVersion": "3.1.0",
  "updatedAt": "2020-05-12T22:04:33.936Z",
  "devdoc": {
    "methods": {
      "getRoleAdmin(bytes32)": {
        "details": "Returns the admin role that controls `role`. See {grantRole} and {revokeRole}.     * To change a role's admin, use {_setRoleAdmin}."
      },
      "getRoleMember(bytes32,uint256)": {
        "details": "Returns one of the accounts that have `role`. `index` must be a value between 0 and {getRoleMemberCount}, non-inclusive.     * Role bearers are not sorted in any particular way, and their ordering may change at any point.     * WARNING: When using {getRoleMember} and {getRoleMemberCount}, make sure you perform all queries on the same block. See the following https://forum.openzeppelin.com/t/iterating-over-elements-on-enumerableset-in-openzeppelin-contracts/2296[forum post] for more information."
      },
      "getRoleMemberCount(bytes32)": {
        "details": "Returns the number of accounts that have `role`. Can be used together with {getRoleMember} to enumerate all bearers of a role."
      },
      "grantRole(bytes32,address)": {
        "details": "Grants `role` to `account`.     * If `account` had not been already granted `role`, emits a {RoleGranted} event.     * Requirements:     * - the caller must have ``role``'s admin role."
      },
      "hasRole(bytes32,address)": {
        "details": "Returns `true` if `account` has been granted `role`."
      },
      "name()": {
        "details": "Returns the name of the community."
      },
      "renounceRole(bytes32,address)": {
        "details": "Revokes `role` from the calling account.     * Roles are often managed via {grantRole} and {revokeRole}: this function's purpose is to provide a mechanism for accounts to lose their privileges if they are compromised (such as when a trusted device is misplaced).     * If the calling account had been granted `role`, emits a {RoleRevoked} event.     * Requirements:     * - the caller must be `account`."
      },
      "revokeRole(bytes32,address)": {
        "details": "Revokes `role` from `account`.     * If `account` had been granted `role`, emits a {RoleRevoked} event.     * Requirements:     * - the caller must have ``role``'s admin role."
      },
      "symbol()": {
        "details": "Returns the symbol of the community."
      }
    }
  },
  "userdoc": {
    "methods": {}
  }
}